:0200000460009A
:100000004643464200000156000000000103030081
:1000100000000000000000000000000000000000E0
:1000200000000000000000000000000000000000D0
:1000300000000000000000000000000000000000C0
:1000400000000000010408000000000000000000A3
:100050000000800000000000000000000000000020
:100060000000000000000000000000000000000090
:100070000000000000000000000000000000000080
:10008000EB04180A063204260000000000000000FD
:10009000050404240000000000000000000000002F
:1000A0000000000000000000000000000000000050
:1000B0000604000000000000000000000000000036
:1000C0000000000000000000000000000000000030
:1000D00020041808000000000000000000000000DC
:1000E0000000000000000000000000000000000010
:1000F0000000000000000000000000000000000000
:10010000D8041808000000000000000000000000F3
:100110000204180804200000000000000000000095
:1001200000000000000000000000000000000000CF
:10013000600400000000000000000000000000005B
:1001400000000000000000000000000000000000AF
:10015000000000000000000000000000000000009F
:10016000000000000000000000000000000000008F
:10017000000000000000000000000000000000007F
:10018000000000000000000000000000000000006F
:10019000000000000000000000000000000000005F
:1001A000000000000000000000000000000000004F
:1001B000000000000000000000000000000000003F
:1001C000000100000010000001000000000000001D
:1001D000000001000000000000000000000000001E
:1001E000000000000000000000000000000000000F
:1001F00000000000000000000000000000000000FF
:10020000FFFFFFFFFFFFFFFFFFFFFFFFFFFFFFFFFE
:10021000FFFFFFFFFFFFFFFFFFFFFFFFFFFFFFFFEE
:10100000D10020434D1600600000000000000000E9
:1010100020100060001000600078016000000000F7
:10102000000000600084010000000000FFFFFFFFDF
:10103000FFFFFFFFFFFFFFFFFFFFFFFFFFFFFFFFC0
:10104000FFFFFFFFFFFFFFFFFFFFFFFFFFFFFFFFB0
:10105000FFFFFFFFFFFFFFFFFFFFFFFFFFFFFFFFA0
:10106000FFFFFFFFFFFFFFFFFFFFFFFFFFFFFFFF90
:10140000814205D051F8043B40F8043B8242F9D8B0
:10141000704700BF044A05494FF0000342F8043BFF
:101420009142FBD8704700BFC022002040520020EC
:101430002DE98848BFF34F8F00BF00BF00BF00BF3A
:1014400000F042F9684B0822C3F8542100BF00BFE6
:1014500000BF00BF00BF00BF00BF00BF00BF00BF94
:1014600000BF00BF00BF00BF00BF00BF5F4A6049B0
:101470006048FFF7C5FF604A60496148FFF7C0FF59
:10148000604CFFF7C7FF4FF470004FF0E0210023DE
:101490005D4AC1F8880D44F823200133B02BFAD1FE
:1014A0005A4B80215A4A03F8011B9342FBD14FF05B
:1014B000E0254D4E4FF08039DFF884B1DFF884A18C
:1014C0004FF0FF31C5F8084D0027C6F80491C6F863
:1014D00000B1C6F8F490C6F8F0A0D5F8243DDFF8C6
:1014E000688143F4E0234B4AC5F8243DD8F81C300A
:1014F00023F07F0343F04003C8F81C30D8F82430B1
:1015000023F07F0343F04003C8F824309166D1668E
:101510001167516700F0E0F83F4B4049A363404B2F
:10152000E36363236B610323AF612B613D4BC5F81C
:10153000203DD5F8FC3D43F08073C5F8FC3D3A4BA7
:101540001A6842F001021A605B680B6000F00EFB43
:10155000C6F804913548C6F800B1C6F8F490C6F84C
:10156000F0A000F085FCD8F86C10314B314A41F402
:101570004051C8F86C101F60C3F80871C3F81871A7
:10158000C3F82871C3F83871936BDB0708D442F6AF
:101590001563294951651365936B43F00103936308
:1015A000244A264C936843F00113936000F01CF921
:1015B00000F060F800F054FC00F006FB00F086F844
:1015C0002368132BFCD900F097FB2368B3F5967FB3
:1015D000FBD300F07FF800F07BF800F031FC00F066
:1015E00037FC30BFFDE700BF00800D4068330100CD
:1015F000B41F006000000000C022002020530160E2
:1016000000000020002000209177000000E400E0AE
:10161000A0E400E000C00A40518C0000C851002046
:10162000558C000000002020001000E00046C3237D
:101630000040084000400D400000C056CC51002042
:101640001B1018200C0D111300C00F40054B4FF458
:101650002A01054A05485A641864054A9963954663
:10166000FFF7E6FE00C00A40BFAAAAAA07002000B2
:1016700000800620104BA020104AD96E41F4403162
:1016800010B4D96640F23764D96E41F44071D9661E
:1016900054649064936C1B06FCD4094A40F2376191
:1016A000A02351649364936C13F08003FBD1054A2B
:1016B00013705DF8044B704700C00F4000400C40B1
:1016C00000800C40F7510020704700BF704700BFFA
:1016D000704700BF00BF704710B44FF0E0230021F7
:1016E00010243148C3F8941DC3F89C4D1124C3F84D
:1016F000A00D2E48C3F89C4D1224C3F8A00D2C4811
:10170000C3F89C4D2B4AC3F8A00D2B4C42F0150298
:101710002A48C3F89C4DC3F8A00D294C2948C3F8AA
:101720009C4DC3F8A00D284CC3F89C2D2748284A8F
:10173000C3F8A04DC3F89C0DC3F8A02D02F5A0225C
:10174000244C0C322448C3F89C4DC3F8A02D234AE6
:10175000C3F89C0D224CC3F8A02D02F14062C3F8DF
:101760009C4D2048C3F8A02D0C32C3F89C0DC3F843
:10177000A02D00BF00BF00BF00BF00BF0122C3F803
:10178000942DBFF34F8FBFF36F8FC3F8501FBFF37C
:101790004F8FBFF36F8FD3F8142D5DF8044B42F4D5
:1017A0004032C3F8142D70473F0000102500080791
:1017B0000900100040520020130020002100020701
:1017C0001400002025000813090000101600202036
:1017D00027000B1317000040180000602F000B07B4
:1017E000190000701A000080F0B5B84B1822B84EEE
:1017F0000120B84F83B0C3F85C62B749C3F8607288
:10180000B64DC3F86462A6F53046B54CC3F86862BD
:10181000C3F86C52C3F87052C3F87452C3F87852CC
:1018200048F20C75DA661A675A679A67DA67C3F87E
:101830008020C3F88420C3F88820C1F82C03A94A6B
:10184000C1F83003C1F83403C1F83803C1F83C03D0
:10185000C1F85003A169A44B0A40A448A44913430A
:10186000A44AA361D4F8843043F00C03C4F8843054
:101870004FF0FF34036843F00203036003682B401A
:101880004FF400551A439C4B026044608A689B4C9D
:1018900013409B4A43F000538360C36823F07803EE
:1018A000C360036A134023430362036A1340954AEB
:1018B0002343954C43628262C2620022D1F8B83061
:1018C00023F03F0343F00103C0F8B830D1F8BC3037
:1018D0008E4923F03F0343F00103C0F8BC3040F2CF
:1018E0000563026105660467C0F880304566446799
:1018F0000224C0F88430036823F00203036081618E
:10190000834B8449C46143F8042B8B42FBD1774A53
:10191000136843F001031360136813F00103FBD154
:101920007A48022140F2F564906140F29940D16119
:1019300040F26641C2F8004242F20144C2F810127D
:101940007549C2F82002C2F8301240F2354173489E
:10195000C2F83442C2F84012714CC2F8500242F24E
:1019600001207049C2F854120121C2F86042C2F845
:1019700064025E48C2F8A030C2F8A430C2F8B010C9
:101980004369DA07FCD5012300244FF4803257491C
:101990004361C0F8A040C0F8A420C0F8B0304B6943
:1019A000DB07FCD5012300244FF400304F4A4B6184
:1019B000C1F8A040C1F8A400C1F8B0305369DF07F6
:1019C000FCD501230024584848495361C2F8A0407F
:1019D000C2F8A400C2F8B0304B69DE07FCD5D1F8DC
:1019E000003145F60D5221209BB24861934265D1EA
:1019F00000244FF4802201233C48C1F8A040C1F8E4
:101A0000A420C1F8B0304369DD07FCD501234FF4B1
:101A100000040021354A4361C0F8A040C0F8A4107A
:101A2000C0F8B0305369DC07FCD501234FF4000443
:101A30004FF480302D495361C2F8A040C2F8A40091
:101A4000C2F8B0304B69D807FCD501234FF400042D
:101A50004FF40030254A4B61C1F8A040C1F8A40002
:101A6000C1F8B0305369D907FCD501234FF4000405
:101A70002D481E495361C2F8A040C2F8A400C2F824
:101A8000B0304B69DA07FCD5D1F8003145F60D527C
:101A900021209BB24861934250D008254FF40004A6
:101AA00022490020224B234A009015705A1A012324
:101AB0002148224400F0E0F903B0F0BD1E4B0022A3
:101AC000C3E90022C3E9022203B0F0BD00801F4039
:101AD000F9B00100F910010000841F40F970010005
:101AE00000C00F40FFFCFF1F000300A000402A4081
:101AF00000802A401200FFFFFF37F70040000080FF
:101B000000FFF07CFF000F8363000200F05AF05AE0
:101B100000422A4000432A409F041830EB06180A6E
:101B20003806180A0632012604000300000000707F
:101B300000000070F8510020344000204FF40004F1
:101B40004FF4802201230848C1F8A040C1F8A42026
:101B5000C1F8B0304369DB07FCD5012310254FF0F5
:101B6000807443619CE700BF00402A40F0B4154AEE
:101B700040274FF480314FF480564FF400554FF416
:101B8000404443F24200136913F0020F0ED113F4E4
:101B9000005F0FD013F4805F0ED0002BF3DA13F444
:101BA000803F0BD15B060BD5F0BC7047946151614F
:101BB0009061E8E75561E6E75661E4E79161E2E7A5
:101BC0005761E0E700800D403F4A03203F49F3EEB4
:101BD000095AD2F880304FF0000C9FED3D6A23F097
:101BE00001039FED3C5A30B4C2F88030C2F8900037
:101BF000D1F8E010384DCBB2384C39482B6007EEA5
:101C0000903A0B0DC1F30B21F8EEE77A06EE903A0D
:101C100007EE101A334BB8EEC77A2160F8EEE66A89
:101C2000314937EEC66A37EEC55A76EEC76A77EEA7
:101C3000E57A26EE266AC3ED006A25EE265AD2F82A
:101C4000803067EEA64AC0ED007AC6EE275A2748D4
:101C500085EE276AC4EEA76A75EE875AFCEEE55A50
:101C600036EE076A15EE904ABCEEC66A43EA0453A4
:101C700076EE877AC2F8803016EE103AD2F89041AC
:101C8000FCEEE77A01EA0341214317EE903AC2F8ED
:101C90009011C3F30B03D2F890110B431449C2F80F
:101CA0009031D2F8803043F00203C2F88030114BFB
:101CB00080F840C0C1F840314FF0E023012230BC31
:101CC000C3F80821704700BF00810D4000441F4049
:101CD0000000AA420000B442B8510020B4510020D4
:101CE000BC510020C05100200000FF0F00E400E0C4
:101CF000002000207D790000314B40F6617210B564
:101D0000C3F8202140F2044400F0A6F82D4A2E49E1
:101D1000D2F880302D4843F00303C2F880302C4BBA
:101D2000C1F8604102681A4203D1D1F8A8319A077C
:101D30001BD0254A4FF00041244B5963D2F8403163
:101D400043F00203C2F84031D2F840319B07FBD484
:101D50004FF400304FF0E0211C4B4FF00042C1F82F
:101D60008C0219209A6300F06FF8184A4FF08040F7
:101D7000154C002190630A20164B11604FF420721D
:101D8000C4F8A801184600F06FF84FF4800203462B
:101D90004FF4810040F243111860C4F858311A64BE
:101DA0000D4B0E4AC4F84811C3F804224FF0E0224C
:101DB0004FF400310123C2F80C11C4F8403110BDBA
:101DC00000800D4000C00F4000002E4000900D40EC
:101DD000001C1E000000002000200020657B000089
:101DE00008B50E4B1B6E9B0700D4FBBE72B60C4BA6
:101DF00000200C4AC3F8400103F160430A49A3F5EF
:101E00005F2311649D46BFF34F8F4FF400130748C3
:101E1000074ADB6902609B68984700BF00441F4087
:101E200000002E4000C00A40030020000080202057
:101E3000000012EBF8B500BFF8BC08BC9E46704726
:101E40005FF800F099DE00005FF800F069720000B2
:101E50005FF800F04D7400005FF800F0D5820000DC
:101E60005FF800F0797600005FF800F0B1D700006D
:101E70005FF800F0796F00005FF800F0C18C00009F
:0C1E8000450000006D02000099610000A8
:101E8C0016035500530042002000530065007200F9
:101E9C00690061006C0000001803540065006500C7
:101EAC006E00730079006400750069006E006F00AD
:101EBC000403090409026200030100C032080B008C
:101ECC0002020201000904000001020201000524C3
:101EDC00001001052401010104240206052406005A
:101EEC00010705820310001009040100020A00001A
:101EFC0000070503024000000705840240000009AA
:101F0C0004020002FF6AFF0007058102400001077E
:101F1C00050102400001000009026200030100C03B
:101F2C0032080B0002020201000904000001020247
:101F3C0001000524001001052401010104240206FE
:101F4C0005240600010705820310000509040100A1
:101F5C00020A0000000705030200020007058402C4
:101F6C000002000904020002FF6AC7000705810293
:101F7C000002010705010200020100000A0600022E
:101F8C00EF02014001000000005EBCE2613FDD8316
:101F9C00C29C7E20A3FD1F41009D23BE46DB65F83D
:081FAC008C11AF32CA57E97431
:101FB400000000000000000000000000000000001D
:101FC400000000000000000000000000000000000D
:101FD4000548064B1B1AD90F01EBA301491002D087
:101FE400034B03B118477047C0220020C0220020D1
:101FF4000000000008B5054B1BB105490548AFF3C7
:102004000080BDE80840FFF7E3BF00BF0000000008
:102014005C40002000840160F8B5794D0121794CC1
:10202400062007F077F9784B69682268A3FB02322F
:102034006423920C03FB02F26B685B1A9A42FBD88E
:102044000021242007F066F9002125206C4F07F0B9
:1020540061F96D4B69682268A3FB02324FF47A730D
:10206400920C03FB02F27B685B1A9A42FBD826208F
:10207400634E06F08DFE07EE900A644B0121B8EE24
:10208400E76B24209FED562B9FED573B9FED584B5C
:1020940086EE027B9FED585B27EE037B27EE047BE5
:1020A40087EE056BB7EEC66B83ED006A07F032F975
:1020B4000021252007F02EF9534B79682268A3FBF1
:1020C40002324FF47A73920C03FB02F273685B1AC8
:1020D4009A42FBD826204A4D06F05AFE07EE900A93
:1020E4004B4B0021B8EEE76B24209FED3D2B9FED79
:1020F4003E3B9FED3F4B86EE027B9FED3F5B27EE21
:10210400037B27EE047B87EE056BB7EEC66B83ED8E
:10211400006A07F0FFF80121252007F0FBF83A4B8D
:1021240071682268A3FB02324FF47A73920C03FBAA
:1021340002F26B685B1A9A42FBD8262006F028FE4E
:1021440007EE900A334B0121B8EEE76B24209FED94
:10215400242B9FED253B9FED264B86EE027B9FEDC6
:10216400265B27EE037B27EE047B87EE056BB7EE39
:10217400C66B83ED006A07F0CDF80121252007F036
:10218400C9F86868204B22684FF47A741C49A3FB91
:102194000232920C04FB02F24B681B1A9A42FBD8DF
:1021A400262006F0F5FD07EE900A1B4BB8EEE76B10
:1021B4009FED0B2B9FED0C3B9FED0D4B86EE027BB1
:1021C4009FED0D5B27EE037B27EE047B87EE056B0B
:1021D400B7EEC66B83ED006AF8BD00BFAFF30080B5
:1021E4000000000000FEAF400000000000C8A9404D
:1021F4000000000000F084400000000000C0924095
:10220400001000E00415002083DE1B4390340020FE
:1022140074390020703900208C24002070B51948CE
:1022240000F0CCFC2021184800F0BEFB174E212101
:10223400174800F0B9FB174C2721174800F0B4FBEE
:10224400164D29221649304600F08CFC22461549C9
:10225400304608F04FFD144E1449284606F072FD2E
:102264002846134D2246314608F044FD11492846BC
:1022740006F068FD224631462846BDE8704008F065
:1022840039BD00BF74400020783900205841002037
:10229400D839002090190020A8390020444000209B
:1022A40048170020E50B0000D16D000070030020EA
:1022B40050400020540600202DE9F843012123203A
:1022C40007F064F800212220714D07F05FF8012126
:1022D4000220704C07F05AF8012104206E4F07F0D9
:1022E40055F801212920DFF8F49107F04FF8012176
:1022F400052040F2EE2807F049F80021162007F0E7
:1023040045F80021272007F041F801211E2007F09D
:102314003DF801211D2007F039F80121242007F0A0
:1023240035F80121252007F031F80021262007F097
:102334002DF80121022006F0EDFF0121042006F012
:10234400E9FF0121292006F0E5FF0021052006F020
:10235400E1FF0121032006F0DDFF01211E2006F02C
:10236400D9FF01211D2006F0D5FF0121202006F010
:10237400D1FF2E6808F068FB2378002B59D03B78F6
:10238400DB0756D52B68D9F800209B1A0E2B50D9A1
:1023940000224FF41651414806F006F84FF48052DB
:1023A4003F493E4806F06EF930224FF416513D483D
:1023B40005F0FAFF00224FF416513B4805F0F4FFF4
:1023C40000224FF41651394805F0EEFF00224FF475
:1023D4001651374805F0E8FF4FF4E1310022354843
:1023E40005F0E2FF0C2006F02BFD202006F058FD3E
:1023F400FE21314805F03EFE40B341F2883006F03C
:102404000BFF2E4800F0ECFA2C4800F009FB0028E2
:1024140035D02B4800F0E4FA294800F001FB30B332
:10242400284800F0DDFA274800F0FAFAB0B1BDE818
:10243400F8832B6822789B1B2AB1B3F5FA6FA7D8CF
:1024440008F002FB96E74345FAD9A1E71B211E4891
:1024540008F07CFA1D4806F0D5FACEE734211C4872
:1024640008F074FA1948BDE8F84306F0CBBA3121F4
:10247400184808F06BFA154806F0C4FAD0E7302182
:10248400154808F063FA114806F0BCFAC1E700BF2A
:10249400CC51002000520020FF51002028160020BB
:1024A40090240020C8150020E816002048170020BA
:1024B40088160020681500209C340020A8390020CC
:1024C400D8390020783900203C120020581500200B
:1024D400C01200208C12002058120020DC51002071
:1024E400F0B500212320B84C2DED068B89B006F001
:1024F40011FF4FF4E17006F08FFE0121232006F056
:1025040009FF4FF4E17006F087FE1621AF4808F08A
:102514001DFAAF4806F076FA0922AE49204606F0C5
:1025240049FA204606F06EFA04E005F0B1FEC0B2A6
:1025340008F0F6F9204605F059FE03462046002B24
:10254400F3DC0621A448A54C08F000FA04E005F0E9
:102554009FFEC0B208F0E4F9204605F047FE0346AA
:102564002046002BF3DC06219D489E4C08F0EEF932
:1025740004E005F08DFEC0B208F0D2F9204605F063
:1025840035FE03462046002BF3DC1320964E06F05E
:10259400FFFB07EE900A11219448B8EEE76B944CC8
:1025A400944D9FED7B9B9FED7C8B9FED7D4B86EE49
:1025B400097B9FED7D5B27EE087B27EE047B87EE8E
:1025C400056BB7EEC66B86ED006A08F0BFF996EDB1
:1025D400000A02217E48B7EEC00A06F051FA7C4890
:1025E40006F010FA172006F0D3FB03460F218248A9
:1025F4000AEE103A08F0AAF902217548B8EECAABFF
:102604009FED6B4B8AEE097B9FED6B5B27EE087B9E
:1026140027EE047B87EE050BB7EEC00BB7EEC00ABE
:1026240006F02EFA6A4806F0EDF9272006F0B0FB12
:1026340003460F2171480AEE103A08F087F9022187
:102644006348B8EECAAB8AEE090B20EE080BB7EE6E
:10265400C00BB7EEC00A06F013FA5D4806F0D2F9D3
:10266400162006F095FB0346102165480AEE103A41
:1026740008F06CF902215648B8EECAAB8AEE090B91
:1026840020EE080BB7EEC00BB7EEC00A06F0F8F95F
:102694004F4806F0B7F91B2006F07AFB03460B21DE
:1026A40058480AEE103A08F051F902214848B8EEA9
:1026B400CAAB8AEE090B20EE080B30EE000BB7EE26
:1026C400C00BB7EEC00A06F0DBF9414806F09AF9F0
:1026D400122006F05DFB034613214B480AEE103A24
:1026E40008F034F902213A48B8EECAAB9FED346BD6
:1026F4008AEE090B20EE080B20EE060BB7EEC00B9A
:10270400B7EEC00A06F0BCF9314806F07BF90D219A
:102714003E4808F01BF93E4B02212D4893ED000A78
:10272400B7EEC00A06F0ACF9294806F06BF90E21A1
:10273400384808F00BF9384B0221254893ED000A7C
:10274400B7EEC00A06F09CF9214806F05BF90F21A8
:10275400324808F0FBF8324B02211D4893ED000A81
:10276400B7EEC00A06F08CF9194806F04BF91821A7
:102774002C4808F0EBF82C4B0221154893ED000A85
:10278400B7EEC00A06F07CF9114806F03BF954E0B4
:102794000000000000FEAF406666666666660A409A
:1027A4007B14AE47E1FA2840EC51B81E85EB034098
:1027B4006666666666662740EC51B81E85EBF53F93
:1027C4000000000000408F4068150020D010002059
:1027D40058150020E8100020F4100020C81500202F
:1027E400FC10002088160020083A00200411002064
:1027F4002816002074400020181100202811002001
:10280400381100204C110020581100206C110020B8
:10281400903400207C110020743900208C11002099
:10282400703900209C1100208C24002005F030FD1C
:1028340001462846C9B200F095FC204605F0D6FCB6
:1028440003462046002BF1DC474C204600F0F0FC08
:10285400204657EC106B00F007FDD4ED217A0023DD
:10286400D4F89400B8EEE77B256C84F87D3084F8C6
:102874008D3084F83D3084F84D302378216D9FED00
:10288400385B87EE056B002B66D0384BA26B1B6858
:102894009B1A374AA2FB03239B093246354E079302
:1028A4003B4606913449354C8DED026B8DED000BA2
:1028B400CDE90405324806F0C1F83146314800F04C
:1028C40009F90A21304808F041F896ED000A2F4D25
:1028D4000221B7EEC00A2A4806F0D2F8284806F0CA
:1028E40091F829462A4800F0F5F80B21294808F008
:1028F4002DF895ED000A02212148B7EEC00A06F032
:10290400BFF81F4806F07EF82146234800F0E2F89D
:102914000E21224808F01AF894ED000A0221184802
:10292400B7EEC00A06F0ACF8154806F06BF8DFED18
:102934001C7A94ED007A0520B4EEE77AF1EE10FAF1
:102944004CBF0121002106F0E5FC09B0BDEC068B6B
:10295400BDE8F040FFF760BB124B9EE7AFF3008089
:10296400000000000000594074400020CC510020B9
:10297400D34D621094340020B81100208824002024
:1029840058150020A8390020DC11002098340020BC
:10299400D8390020E811002078390020F4110020F3
:1029A40000001E4237894100002340F2EE22C9B2E2
:1029B40010B50446037580F82730C0E90A3208F0E0
:1029C4009FF9012204F11F01204608F01DFB204657
:1029D40008F012FBFA2006F01FFC204610BD00BFD1
:1029E40070B505460C4E10210C4805F11E04263521
:1029F40007F0ACFF202007F093FF14F8011F002319
:102A04001022304606F028F8A542F3D10248BDE86A
:102A1400704005F0F7BF00BF58150020FC050020EA
:102A240010B5044607211F3008F092FB94F82630B5
:102A3400834201D1012010BD1121044807F086FF13
:102A4400034805F0DFFF002010BD00BFE8050020AB
:102A54005815002010B504460821163008F078FBFC
:102A6400A37F834201D1012010BD1C21034807F03C
:102A74006DFF034805F0C6FF002010BD10060020BE
:102A84005815002070B5054608F054F9284605F19C
:102A9400150408F093FA0022BE21284605F11E060B
:102AA40008F058FA284608F079FA04F8010FB442FD
:102AB400F8D12846FFF7CEFF38B1EB8A00EE103A82
:102AC400BAEECE0BB7EEC00B70BD9FED010A70BD20
:102AD40000C079C470B590F827300446012B06D0A5
:102AE400022B25D073B1002380F8273070BD1C4B16
:102AF400D0E90A121B685B1A9342F7D3022380F8C9
:102B0400273070BD012580F8275008F013F92046BE
:102B140008F054FA20462A46442108F01BFA104BC8
:102B240040F2EE201B68A362BDE8704006F074BB5F
:102B34000D460126FFF7A6FF204685ED000A84F81E
:102B4400276008F0F7F8204608F038FA32464421A6
:102B5400204608F0FFF9024B1B68A36270BD00BF5A
:102B6400CC51002070B50E4609490446154606F0BE
:102B7400E9F841F2140000212044C4E9036506F099
:102B8400E1F8002104F5815006F0DCF8204670BD20
:102B94000407002010B504460021007C06F0BAFBAF
:102BA40004F5815006F0ECF841F21400204406F0DC
:102BB400E7F8204606F0E4F8204610BD4E21002236
:102BC4004FF0300C80F8361002210280828082603F
:102BD40002730282426102768283026280F82420B8
:102BE4000285C26280F8302080F834C08287026493
:102BF400A0F84C200265A0F85C204266A0F86C2086
:102C04004267A0F87C20C0F88420A0F88C20C0F88B
:102C14009420A0F89C20C0F8A42080F8BD10A0F84F
:102C2400BE2080F8C020C0E93122C0E93322C0E9C7
:102C34003522A0F8AC2080F8AE20704738B505786E
:102C440004462D2D08BF013420460BF059FE6422A2
:102C5400237802FB00F0A3F13002092A05D814F806
:102C6400013FA3F13002092AF9D92E2B03D02D2DCF
:102C740008BF404238BD6378303B092BF7D8A278AF
:102C840003EB8303303A00EB4300092A98BF801812
:102C94002D2D08BF404238BD70B50D4604460BF0DB
:102CA4002FFE1B4B6422A3FB00135B0902FB1300E2
:102CB4002B802278174BA2F1300100FB03F3092982
:102CC40005D814F8012FA2F130010929F9D92E2AC7
:102CD4000AD003EB8303104A002101332972A2FBBB
:102CE40003235B086B6070BD60780134A0F1300190
:102CF4000929EED8074A094EA6FB020214F8010F6F
:102D0400D20802FB0133A0F130010929F4D9E0E72C
:102D14001F85EB5180969800ABAAAAAACDCCCCCC47
:102D24002DE9F04190F8AD60044656B390F8AE300A
:102D3400A3F14102052A6FD9A3F16102052A94BFC8
:102D4400573B303B94F8AF201B01A2F14101DBB2A9
:102D5400052940F2F980A2F16101052994BF573A8F
:102D6400303A134494F8AC20DBB29A4200F0B680B7
:102D7400D4F8D43000260133C4F8D4303046BDE84A
:102D8400F08190F8BE3033B390F8BD20022A03D00E
:102D940090F8AE10002941D1D4F8C850002DEDD0E0
:102DA4002B4604F1AE0704E02D6B002DE6D0D4F8D9
:102DB400C830996AA86A0CF07FFE0028DED1EA6A5E
:102DC40094F8BE309A42D9DCEED10F223946284617
:102DD4000CF0C4FDE8E790F8AE30472B00F0CB8050
:102DE4000223D4F8C45084F8BD30C4F8C850002D70
:102DF400C4D004F1AE0704E02D6BC4F8C850002D14
:102E0400BCD0A86A39460CF057FE0028F4DBB5D0D4
:102E14000023C4F8C830B1E7373B93E743EA4213D1
:102E2400013B2B2BB8D801A252F823F0C5100000A7
:102E3400B9100000A91000009D1000008D100000C2
:102E4400DB100000CF1000002D1100002111000044
:102E5400E90D0000E90D0000E90D0000E90D000096
:102E6400E90D0000E90D0000E90D0000E90D000086
:102E7400E90D0000E90D0000E90D0000E90D000076
:102E8400E90D0000E90D0000E90D0000E90D000066
:102E9400E90D0000E90D0000E90D0000E90D000056
:102EA400E90D0000E90D0000E90D0000C510000067
:102EB40011110000B9100000A91000009D100000BD
:102EC4008D10000007110000FD100000F310000039
:102ED400E90D0000E90D0000ED100000D4F8D83031
:102EE40094F8C0200133C4F8D8307AB3D4F8D03081
:102EF40094F8BD200133C4F8D030002A00F0FD80DE
:102F0400012A4BD0D4F8C850002D3FF437AF2B46DC
:102F1400DFF8408240F201170BE00CF037FFD8F8DD
:102F24000030AF842B622D6B002D3FF427AFD4F813
:102F3400C830996AA86A0CF0BFFD0346294605F11A
:102F44001000002BE9D019E7373A0AE794F8BD30AE
:102F5400002B57D0012BD5D140F201127D4B616C6F
:102F6400A287A4F84C202164626D19681B68A164CF
:102F74002265A365C6E790F8AF1077480CF042FCD1
:102F840000283FF42DAF04F1B005744928460CF035
:102F940093FD002840F0A880012322E76D4A40F207
:102FA4000113616C206A21641168A060A164616DE1
:102FB400E06A21651168A387A165E169A4F84C3032
:102FC400616094F8241060612173A16A216194F80E
:102FD4003010217694F8351084F8341094F83710B2
:102FE40084F8361011682380A163A16E61661168AC
:102FF4002166A16F1268A4F85C30A4F86C30C4E9AF
:103004001C217FE7534B40F20110626D1968A4F84C
:103014004C00A1652265186840F201121B68D4F8BF
:103024009810C4F8A030D4F8A830A4F88C20A4F8E0
:103034009C20C4F8A430C4E9240163E7A1F157013A
:10304400B1FA81F1490980F83010A5E600F12801B0
:10305400AE30FFF721FE9FE6A1F15301B1FA81F1F1
:10306400490980F8241097E600F11C01AE30FFF7FF
:1030740013FE91E6AE30FFF7E1FD60658CE6AE30FD
:103084000BF03EFCC4F8980086E6302980F8351031
:1030940094BF0023012380F8C0307DE680F8371008
:1030A4007AE6AE300BF02CFC606475E6AE30FFF7C8
:1030B400C5FDA06770E6AE30FFF7C0FDA0666BE605
:1030C400A1F14101B1FA81F1490980F8C01063E628
:1030D400AE30FFF7B3FDC4F888005DE6AE30FFF70D
:1030E400ADFDC4F8A80057E61D4928460CF0E4FCE1
:1030F400003818BF0120430073E6164B40F201125A
:10310400616DA4F84C2021651968A4F87C20A165A0
:10311400E169616094F824102173A16A216194F833
:103124003010217694F8351084F8341094F8371060
:1031340084F8361019682280D4F88820A163C4F872
:1031440084201A68C4F88020226AA260E26A62615C
:1031540061E700BFCC510020300600203806002073
:103164003C06002038B5D0F8CC30A1F10A02044660
:103174000D460133C0F8CC30222A2ED8DFE802F005
:10318400182D2D182D2D2D2D2D2D2D2D2D2D2D2D95
:103194002D2D2D2D2D2D2D2D2D2D412D2D2D2D2D47
:1031A400182D120090F8AC3083F02C0380F8AC306A
:1031B40094F8BF300E2B30D90020A5F12A0194F8E1
:1031C400BE300022B1FA81F1013384F8BF204909ED
:1031D40084F8BE3084F8AD1038BD90F8BF300D2BA4
:1031E40005D85A1C034480F8BF2083F8AE1094F825
:1031F400AD00D0B994F8AC3085EA030184F8AC1082
:1032040038BD002302221846A4F8AC3084F8BD204F
:10321400A4F8BE3084F8C03038BD234400222046D0
:1032240083F8AE20FFF77CFDC7E7002038BD00BF60
:1032340090ED026A00228388B8EE466B427007EE76
:10324400103A037B9FED065BB8EEC77B86EE050B59
:1032540030EE070B0BB1B1EE400B7047AFF30080BB
:103264000000000065CDCD4190ED056A0022038A7F
:10327400B8EE466B427007EE103A037E9FED065B94
:10328400B8EEC77B86EE050B30EE070B0BB1B1EE43
:10329400400B7047AFF300800000000065CDCD41C6
:1032A40070B500F1240384B08C46044601AD164683
:1032B40093E8070085E807004FEA4C122946206A84
:1032C40001F068FB012806D132462946206A01F044
:1032D40045FB04B070BD002004B070BD10B50446B9
:1032E40000F0BAFD002384F8313084F8333010BD87
:1032F40038B514460D46002200F12401006A01F09D
:103304002DFB034620B1428901202A801B8923809A
:1033140038BD00BF38B514460D46002200F1240123
:10332400006A01F01BFB034620B1C28901202A80F8
:103334009B89238038BD00BF38B50D4690F8311005
:1033440009B1002038BD382204460CF009FA0123E3
:1033540040222562184684F8333084F8312038BD81
:10336400F0B40D460978202903D115F8014F202C1B
:10337400FBD0156095602C782F2C11D084B16E1C75
:103384003C2C1D4F35462AD8212C12D804F1FF3C81
:10339400BCF11E0F16D80020F0BC704715F8014F81
:1033A400202CFBD02F2CF9D01D601146F0BC01F06D
:1033B400C3B9A4F1220C5FFA8CFC27FA0CFC1CF0B4
:1033C400010FE8D12E2C01D0202C0DD116F8014B81
:1033D400002CE5D02F2CE3D03C2C3546D4D95C2CE2
:1033E400D9D003D97C2CD6D09660EFE73E3C012C93
:1033F400FAD80020F0BC7047012100052DE9F04FF8
:1034040090F8333083B00546DC0774D558060F4670
:10341400904640F1B080D5E90023D5E9041018EBBB
:10342400020443F10003A14270EB0303C0F0A9803E
:10343400B8F1000F5BD0464605F11809D5E9003212
:10344400D5F820A0DAF838441C40C4F3080B002C4B
:1034540070D1134370D195F831305A064CBFDAF865
:103464003424EA69AA619AF84504023ADAF82C1479
:10347400630A824001EB54211144BBF1000F45D192
:10348400B6F5007F42D3DAF81C2291423ED0B6F55D
:10349400806F58D34FF0010B0BFA00FBABEB030B1F
:1034A400730A9B4528BF9B4691424FEA4B240AD896
:1034B40001EB0B039A4206D20AF50470019103F062
:1034C400ABFC0199B8B1DAF814025B460268D2F891
:1034D40014A03A46D04770B123462744D5E90012D8
:1034E4005B1842F10002361BC5E90032A8D1404600
:1034F40003B0BDE8F08F95F832304FF0FF3043F061
:10350400020385F8323003B0BDE8F08FCBF50074C8
:1035140000220AF50470B44228BF344603F0A8FC24
:103524000028E8D000EB0B012246384605F06EFF78
:103534002346D2E7AA6996E795F833305B060ED5A1
:10354400AA6901328EE7DAF814023A4603681B6965
:1035540098470028CFD04FF400731C46BDE74A4675
:103564005046A96901F058FA0028C4DB0CD0D5F8FC
:1035740020A0AA6977E795F8313019077FF558AF8D
:1035840049E7A1EB020853E795F8313013F0500FE7
:10359400B1D0A8EB06084046AAE700BFF0B583B057
:1035A4000122044685690DF10701D0E90067FFF7A0
:1035B40025FF0128A5610CBF9DF807004FF0FF30DF
:1035C400C4E9006703B0F0BD2DE9F04F1F4690F841
:1035D400313083B00446D0F81880002B51D0164601
:1035E400D0E9001CBC4508BF91425CD056EA0702F2
:1035F4004DD01D0704D5D0E90402B042BA4140D3EE
:1036040094F83320751ED4F820A0019247F1FF30BE
:103614009AF845240932D2B2C2F1200ED540A2F163
:10362400200900FA0EFB20FA09F045EA0B050543D0
:103634000198400633D4481E20FA02F24CF1FF30C0
:1036440051EA0C0C00FA0EFE20FA09F042EA0E02CE
:1036540042EA000201D0954229D25B064CBFDAF857
:103664003434E369A36104F1180906E0A169013D5A
:10367400206A01F0D1F9002803DD4A46002DF5D176
:1036840007E00020C4F8188003B0BDE8F08F0023E1
:1036940083610120C4E9006703B0BDE8F08FE369EA
:1036A4002B44A361F5E7012003B0BDE8F08FAD1A08
:1036B400D9E700BF2DE9F04F174690F831208FB0BD
:1036C4000546002A40F0D7808B4691F8311011F05E
:1036D400500F00F0D08003F003019A46032900F054
:1036E400CA80013103F0080041EA00030293002F6D
:1036F40000F0CB80396901F10E08B649A1FB081826
:10370400DBE900104FEAD808014308F102085FFA28
:1037140088F805D000200021CBF81820CBE900015F
:103724000024029B264643F040030393202206A96B
:103734005846FFF763FE00B3202840F09C809DF9B3
:1037440018209DF81830002AC0F2A28034B9DBF8A2
:103754000020A2F12009DBF818200192444501D28F
:103764000134E4B2002B00F01381202206A958464C
:103774000026FFF743FE0028DED11AF4007F7AD03A
:10378400029B9B0777D5002F75D0444517D2DDF8EF
:1037940004A0202206A95846FFF730FE631C002827
:1037A40061D0202867D12CB9DBF80020DBF818A001
:1037B400A2F12009DCB2A045EBD8CDF804A0382250
:1037C400002128469BF833400BF0CAFFDBF8203079
:1037D400C4F38014019A2B620823002685F82C4038
:1037E40085F831303B68C5E909297B60BE81B8F1B1
:1037F400000F33D008F1FF39B346DFF8DCA15FFADC
:1038040089F9012259462846FFF74AFD044690B338
:1038140090F90020002A2EDB202200210BF0A0FFCB
:10382400002E00F0BC80BBF1010F00F0D780C12353
:10383400A3461E3404F81E3CBB8938461BB9D7E99D
:1038440001239A4205D003F051FB2BF8020FA34544
:10385400F2D101365FFA86FBD845D2D8284600F06B
:10386400FBFA06460DE05846DBF8186000F024FB2E
:10387400002840F0918000231E4685F8313085F8F9
:10388400333030460FB0BDE8F08F4FF0030847E700
:1038940056BB444538BF0024852B7FF447AF3146DF
:1038A4003822284601260BF05BFF9DF81C209DF86A
:1038B400193085F8303002F03703D20658BF43F090
:1038C400080385F83130DBF80030DBF82020203B9A
:1038D4002A62DBF81820C5E909239BF83330C3F3C7
:1038E400801385F82C3021E7C02B28D0C12B7FF41E
:1038F4003CAF3A4606A9284600F092FEE8B1BB89DF
:10390400DBB9D7E901329A4217D11AF4006FB2D168
:103914001AF4884F70D195F8333098076CD41AF4A0
:10392400806FA8D11AF4804FABD02846D5E9042380
:10393400FFF74AFE0028A4D19DE70646F6E6029B5F
:1039440085F833309DF819309B0702D5039B85F821
:1039540033300B9BEB61DDE90823C5E90423DDE982
:103964000C23C5E90223002FCFD04FF000033A699E
:10397400BB813B687B609DF81B309A427FF4F5AEB7
:10398400BE8ABDF81C30F61AB6FA86F67609CDE67C
:10399400002F7FF4F2AE6EE7CBF818600BE78523B7
:1039A400237085F8309084F80190DAF80030002B09
:1039B40046D00DF113020DF1160105A89847BDF884
:1039C40014306381BDF8163023819DF813302375BC
:1039D4003FE700BF89888888CC3C0020C02384F856
:1039E40001B02370029B63F07F0385F833303B6999
:1039F400E370BB8AA3802CE795F83130D9063FF5F4
:103A04003AAF13F001017FF436AF1AF4806F89D016
:103A140095F8332092077FF52EAF002B3FF42BAFA0
:103A2400D5E90032134304D000220023A961C5E97B
:103A34000023284600F042FC00283FF41CAF20E796
:103A440045F621236381E381638202E72DE9F04394
:103A5400002597B0994690F8313001921495ADF84D
:103A64001450002B3ED191F831300F4613F0500F13
:103A740038D01378044616462F2B37D04FF0000861
:103A840001AB02AA31462046FFF76AFC50B3019EFF
:103A94003378002B3ED0002302AA39462046FFF794
:103AA40009FEF8B1A44608AD04F13007DCF80000C3
:103AB4000CF1100C5CF80C1CAE465CF8082C1035AC
:103AC4005CF8043CBC45AEE80F00EFD1DCF8000024
:103AD40008AF2860204600F0BFF984F8318084F8EC
:103AE4003380CDE7002017B0BDE8F08316F8011F3E
:103AF4002F29FBD00196B1B9382220463D6A0BF03C
:103B04002FFE012340222562184684F8333084F8BE
:103B14003120E8E74B4602AA39462046FFF7CAFDA2
:103B240017B0BDE8F0833822002108A83D6A0BF0E5
:103B340017FE012308AF10958DF8533040238DF8FC
:103B440051309BE719B101F58961FFF77FBF084642
:103B5400704700BF90F8313063B991F8313013F0F9
:103B6400500F07D00B6813F01F0C03D113466246A5
:103B7400FFF7A0BD002070478169F8B50446006ACC
:103B840001B10131012200F00DFE0128054632D9B0
:103B940001230146206A1A4600F064FE064650B32B
:103BA400A3695BB394F83320510612D5591CA9427A
:103BB40018D022F04002E16984F8332005E0206A3D
:103BC40000F04CFF3946B0B1A3694F1C99423A4604
:103BD400F5D34FF0FF322946206A00F03FFF50B181
:103BE400A16911B93046A561F8BD2A46206A00F0E2
:103BF40035FF0028F6D100263046F8BD94F833305E
:103C040043F0400384F83330ECE700BF90F83330DE
:103C14009A0736D5C16970B50546A1B90024214675
:103C240007E0037803F07F03037095F830308B428C
:103C340029D3013401222846FFF732FBE1B20028E0
:103C4400EFD1002070BD5B06006A34D590F845348E
:103C5400D5E902240933013ADBB244F1FF34C3F15C
:103C6400200CDA40203B04FA0CFC24FA03F342EA69
:103C74000C021A430023013200F0F4FD0028CDD1D8
:103C8400DFE70020704700232C6A85F83130204696
:103C940085F8333003F0C0F80028D2D004F504705E
:103CA40003F0BAF80028CCD0D4F840040368BDE887
:103CB40070401B6A184700F0F1FE0028AED1C0E73F
:103CC40090F83130DB0601D40020704710B5002293
:103CD40088B000230446FFF777FC08E020281BD1B6
:103CE4009DF900309DF80020002B15DB32B1202215
:103CF40069462046FFF782FB0028EFD194F8333061
:103D04000822204643F0020384F8312084F833303B
:103D1400FFF77CFF08B010BD002008B010BD00BF45
:103D24002DE9F0414FF0000882B04A4F0646444660
:103D3400414600223046FFF7B3FA054630B1017818
:103D4400C02969D0C1292BD0852909D096F83230F1
:103D5400002043F0010386F8323002B0BDE8F08160
:103D640096F8313003F0370383803B6883B10DF15B
:103D740003020DF1060101A89847BDF80630AB8196
:103D84002B82BDF80430EB816B829DF803306B7598
:103D9400326A92F8103243F0010382F81032297823
:103DA400A1F185000022B0FA80F0400901E004226C
:103DB400A95CE303012A02F1010243EA540311FA64
:103DC40083F39CB201D10028F1D11F2AF0D908F164
:103DD400010896F830305FFA88F18B42A9D20122AB
:103DE40006F12401306A00F0B9FD0028AED0356A2E
:103DF4004480284603F010F80028A7D005F5047085
:103E040003F00AF80028A1D0D5F8400403681B6A1F
:103E140098470028A1D199E796F8333013F0400F62
:103E2400437814BF43F0020303F0FD034370D6E963
:103E34000401D6E90732C5E90201D6E902016B6142
:103E4400C5E9060192F8103243F0010382F81032FA
:103E54002978A5E7CC3C002038B590F8313043B33D
:103E640090F93320044690F83330002A0CDB056ABD
:103E7400284602F0D1FF78B994F83230002043F09C
:103E8400010384F8323038BD03F07F0380F8333007
:103E9400BDE83840FFF744BF05F5047002F0BCFFED
:103EA4000028E9D0D5F8400403681B6A9847002825
:103EB400E2D0012038BD00BF70B590F8313005461E
:103EC4005A064CD480682B6AD3F83C341844B0F1B9
:103ED400806F01D3002070BD2846FFF74DFE0028F7
:103EE400F8D0286A0024AE6990F84534023E9E401A
:103EF400D0F82C341E443119052200F50470013425
:103F040002F0B6FF4FF4007200210028E2D00BF05B
:103F140027FC286A012390F8452493409C42EAD365
:103F240095F831305B0615D495F8332062F07F02A2
:103F3400D5E9023185F83320D0F83C249B1841F1AF
:103F44000000AB60D5E90431E8609B1841F1000141
:103F5400C5E904312846BDE87040FFF77DBF006A1B
:103F640000F0A2FEAFE700BF70B5044690F8310040
:103F74009CB0002310F0180F0C931A9303D0206AFE
:103F84000B6A984202D000201CB070BD40F6012399
:103F94006846FFF75BFD0028F5D0A44604F130061F
:103FA4000EADDCF800000CF1100C5CF80C1CAE46F5
:103FB4005CF8082C10355CF8043CB445AEE80F00FE
:103FC400EFD1DCF8000009AA04F1240328609DF86D
:103FD400305007CA83E8070094F83330204684F849
:103FE400305063F07F0384F83330FFF735FF002847
:103FF400C9D00021022208230EA815918DF86B2048
:104004008DF86930FFF702FEBEE700BF38B591F8BE
:10401400313013F0500F02D10025284638BD40F648
:1040240002230446FFF746FB0028F5D01023204660
:1040340084F83130FFF740FF05460028ECD0A16931
:10404400002200232046E161FFF7BEFAC12294F862
:10405400313084F83320002BDFD04123204684F80C
:104064003330BDE83840FFF75BBE00BFF0B5002534
:1040740097B01F4690F831300192ADF81450149562
:10408400002B46D191F831300E4613F0500F40D03A
:104094001378044611462F2B3ED001AB02AA2046CA
:1040A400FFF75EF9002834D0019B1B78002B41D028
:1040B400002302AA31462046FFF7FCFA30B947B381
:1040C40002AA31462046FFF7A1FF10B3A44608AD6B
:1040D40004F13006DCF800000CF1100C5CF80C1C48
:1040E400AE465CF8082C10355CF8043CB445AEE8E8
:1040F4000F00EFD1DCF8000008AE28602046FFF77F
:10410400EDF8019901AB02AA2046FFF729F900282E
:10411400CAD1002017B0F0BD013101910B782F2BCB
:10412400FAD0316A08A8FFF707F90028F1D00199FD
:1041340008AEB2E702AA31462046FFF767FF17B080
:10414400F0BD00BF2DE9F04F0E4690F8311083B05A
:1041540009079DF830B09DF834909DF838809DF89B
:104164003C7040F18580A2F2BC7294B27F2C7FD85F
:104174005A1E0B2A7CD80BF1FF321E2A78D8B8F1CC
:104184003B0F98BFB9F1170F8CBF4FF0010A4FF0E6
:10419400000A3B2F88BF4AF0010ABAF1000F67D129
:1041A40005460193FFF758FE002861D0019B514654
:1041B4004BEA431B7B0817F001074BEA4424D34620
:1041C40043EA481818BF6427A4B248EAC92806F08D
:1041D40001091FFA88F800222846FFF761F8002831
:1041E40046D090F800C0BCF1850F45D00CF14003D7
:1041F400DBB2012B3CD8ACF185010023B1FA81F18B
:10420400490902E0042310F803C04FEACB32012B22
:1042140003F1010342EA5B021CFA82F21FFA82FBF9
:1042240001D10029EED11F2BEDD90AF1010A95F82D
:1042340030305FFA8AF18B42CDD2012205F124019C
:10424400286A00F08BFB98B12C6AA0F802B02046D3
:1042540002F0E2FD60B104F5047002F0DDFD38B156
:10426400D4F8400403681B6A03B0BDE8F04F184754
:10427400002003B0BDE8F08F95F831302A6A03F0CE
:104284003703838092F8103243F0010382F810322E
:10429400B9F1000F02D0A0F810804482B20703D510
:1042A4000775A0F808804481730703D54775A0F803
:1042B4000C80C48190F800C09DE700BF90F83330B3
:1042C4009A0762D570B5C56982B00446A5B313F0E8
:1042D400400634D0006AA26890F845C4013AE16807
:1042E4000CF1090C41F1FF315FFA8CFCCCF1200E8A
:1042F40022FA0CF2ACF1200C01FA0EFE21FA0CFCAD
:10430400A16942EA0E0242EA0C02013219B3013DEC
:104314006D1A01312A44019172BB63F07F03204678
:1043240094ED007B84F8333084ED027B84ED047BD0
:10433400FFF792FD02B070BD012002B070BD81692B
:1043440061B90195C1612946206A00F0A7FBC8B193
:1043540094F83330E1E70195E161DDE701AA006AF1
:10436400019600F059FB00280CDB10D1019D002DB3
:10437400E9D194F83330D0E70023019900F072FAC0
:104384000028E5D1002002B070BD002070474FF036
:10439400FF32A169206A00F061FB0028E6D1F1E751
:1043A4002DE9F04390F8333083B004469D0740F183
:1043B400A18091461A070E4600F19580B9F1000FCD
:1043C40000F0288123684D46206AA169D0F838247A
:1043D40002EA0308C8F30807B8F1000F40F094801C
:1043E400002900F0D48094F833305B0640F1EC806F
:1043F40090F845C4D4E902320CF1090C013B5FFA90
:104404008CFC42F1FF32CCF1200E23FA0CF3ACF118
:10441400200C02FA0EFE22FA0CFCE26943EA0E03B7
:1044240043EA0C031344994280F0D5800131A16121
:1044340090F845240239D0F82C3491401944B5F54C
:10444400007FC0F08A80B5F5806FC0F0A68001239C
:1044540093406A0AA3EB0803934228BF1346D0F89B
:104464001C228A424FEA432809D35F18BA4206D273
:10447400002280F810224FF0FF32C0F81C22D0F83E
:10448400140232460768BF6AB84798B343464644A5
:10449400A5EB0805D4E90072D4E90401DB1942F163
:1044A400000298429141C4E9003207D294F83310D3
:1044B40061F07F01C4E9043284F83310002D83D104
:1044C400D4E9020198429141C0F09680534B1B6895
:1044D400002B00F09D8094F83330484663F07F034E
:1044E40084F833300DE0D0E90423FFF76DF8002899
:1044F4007FF464AF94F83230002043F0010384F871
:10450400323003B0BDE8F08390F8452402394FEA15
:104514005828D0F82C34914041441944002F8ED0AF
:10452400C7F50078012200F50470A84528BFA84605
:1045340002F09EFC0028DDD0384447444246314610
:1045440004F064FFB7F5007F206A9FD100F5047082
:1045540002F062FC002899D1CCE76268636900929A
:104564000193226923689342DDE900239A4112D220
:10457400012200F5047002F07BFC0028BAD02A4620
:1045840031463844A84604F041FF2B467FE7E169F1
:1045940049B3A1614CE70522EBE7D0F81C328B420A
:1045A40006D1002380F810324FF0FF33C0F81C32DC
:1045B400D0F81402324603685B6A9847002899D001
:1045C4004FF40073984662E704F1180200F024FAED
:1045D40000288FDB04D12046FFF7CEFA002889D0CB
:1045E400A169206A24E72046FFF7C6FA002881D093
:1045F400A169206AE1611BE794F833104846C4E9D5
:10460400023261F07F0384F8333003B0BDE8F083F5
:10461400484676E7D4E9003252E700BFCC3C00209C
:104624002DE9F0410C46154601F11E08AB892846D8
:1046340034F8027F1BB9D5E901239A420ED002F067
:1046440055FC02F017FD0646384602F013FD86427B
:1046540009D14445EAD10120BDE8F081B7FA87F0D9
:104664004009BDE8F0810020BDE8F0812DE9F04F5C
:1046740090F8313083B08846002B4FD090F830301A
:104684000746012B53D9013A0B464FF0020A002486
:104694008E18DFF8A0B00022514638460193FEF789
:1046A400FFFD00283AD00278C12A37D1054600F12F
:1046B4001E09019B35F8020F24B300F5105292B283
:1046C400B2F5806F2AD20BEA8424C0F30900204398
:1046D40000F580301946324602F02EFC0346E8B15C
:1046E40000244D45E6D10AF1010A97F830205FFA1B
:1046F4008AFA5245CFD2A3EB08009846002388F8E3
:1047040000300FE000F5205292B2B2F5006F02D3F0
:104714000028DFD1EFE7B2F5806F06D300231846F7
:1047240088F8003003B0BDE8F08F0446D9E70020D4
:10473400E4E700BF00FC0F0070B50C4600234FF601
:10474400FF75226819461E46A3812361626017E043
:1047540002F0CCFBA84222D002F08CFC2369F203C5
:10476400A189013342EA5602060A236152FA80F013
:1047740083B2C0F34E0040EAC33016FA80F086B22A
:1047840020460029E4D1D4E901239A42E0D12069EA
:10479400A6820138FE288CBF0020012070BD0020B5
:1047A40070BD00BF2DE9F84F07468A46914600299F
:1047B40042D0A1F10208D7F83034434542D908F079
:1047C40007030125C8F3C80B9D40EDB24646444695
:1047D400D7F82C140022384601EB143102F048FBC0
:1047E400E8B10BF1FF3B834400F2FF101BF8011FFB
:1047F4000AE04A452BD0A04510D0D7F83054A54242
:1048040014D913F0FF050CD0013429424FEA4503B3
:10481400A4EB0602EDD0A0452646EED10120BDE86A
:10482400F88F58454FF00105E0D101E000263446E9
:1048340001254FF0000BCBE7D0F82084D7F83034B3
:104844004345BCD84FF000080125C346BEE7BAF182
:10485400000F04D1B9F1010F08BFC7F82064B01CE0
:10486400BDE8F88F2DE9F8438046881E15461E469C
:104874008318D8F83024934237D8CEBBD8F82034E4
:10488400834288BFC8F8200400F007030124D8F845
:104894002C74C0F3C8099C4007EB1031E4B2012228
:1048A40040468F1802F0E4FAF8B109F1FF3E86445D
:1048B40000F2FF101EF801CF1CEA040F8CEA040C6E
:1048C4004FEA440414BF01220022B2420DD0013D3C
:1048D4008EF800C018D014F0FF04EDD17045A14645
:1048E4004FF00104E6D13946D9E70020BDE8F8834A
:1048F400D8F820148B42C7D98142C5D3934228BF2C
:104904000023C8F82034BFE70120BDE8F88300BFC6
:10491400F8B5D0F8303401338B4201D20020F8BD11
:1049240007460C4600F50476002505E0D7F8303438
:1049340001350133A342F1D3D7F8241400223046C1
:1049440001EBD41102F094FAA4000028E6D0C4F3D9
:1049540008040459631CE9D1681CF8BD38B50C4639
:104964000B6890F845C400F50470D0F82812023B97
:10497400656803FA0CF3294003EB5123D0F81C12A9
:10498400194402F075FA18B16368C3F308031844B4
:1049940038BD00BF2DE9F8430C46D0F838344968D7
:1049A4000B4011446160134490F8451401F109026D
:1049B400D2B2D3402BB380465D1E00F5047905E0E6
:1049C4002368013D03F1010323601AD3267A002EE4
:1049D400F6D1D8F8303432462768484601339F422E
:1049E40012D8D8F8241401EBD71102F041FABF0011
:1049F40050B1C7F30807C3595A1C09D0013D2360BD
:104A0400E4D20120BDE8F8834FF0FF30BDE8F8831D
:104A14003046BDE8F88300BF38B5D0F830340133F0
:104A24008B4202D24FF0FF3038BD0C46D0F824142C
:104A3400154600F50470002201EBD41102F018FAB7
:104A44000028EFD0A400C4F3080403595A1C02D070
:104A540001202B6038BD002038BD00BF01291BD9BF
:104A640038B5D0F830340C4601338B4201D20020E3
:104A740038BDD0F82414154600F50470012201EB6A
:104A8400D41102F0F5F903460028F0D0A400012067
:104A9400C4F308041D5138BD00207047D0F83034E9
:104AA4000133994201D9002070472DE9F04F0546A2
:104AB40083B00C4600F504790F464FF00008D5F892
:104AC4002414002248464FEAD41B01EBD41102F00F
:104AD400CFF990B1A300C3F30803C2580193531C48
:104AE40016BF16464FF0000A4FF0010A012C04D9F4
:104AF400D5F830240132944203D9002003B0BDE834
:104B0400F08FD5F8241401224846594402F0B0F934
:104B14000028F2D0019B40F80380BAF1000F12D0B4
:104B24000134B44208D00023E21B39462846FFF77B
:104B340099FE0028E1D03746D5F830340133B3422A
:104B4400DBD33446BBE7621C534639462846D21BA6
:104B540003B0BDE8F04FFFF785BE00BF2DE9F84371
:104B640000250646D0F82C1400F504782C460022C3
:104B740040464F1C02F07CF9A8B100F1FF3E04F559
:104B84008059D6F8300405E079B90834844209D252
:104B94004C4516D01EF8011FFF29F5D108340835FD
:104BA4008442F5D3401BBDE8F8830822012319424F
:104BB4004FEA430C18BF0135013A5FFA8CF3F6D182
:104BC400E3E73946D3E700BFF8B500234FF0FF36DB
:104BD40000F504771546C0F84014044641601A46AF
:104BE400C0F81412194680F844340370C66080F883
:104BF4001032C0F81C62384602F03AF9042D0DD880
:104C0400064658B1BDB16B1E00EB031393F8BE21E9
:104C140012F07F0202D193F8C2310BB90020F8BD23
:104C240000EB05163846D6F8B651294602F020F9AD
:104C340006460028F2D005221A49F01C0AF048FE64
:104C44000028EBD196F86C30092BE7D1336D01467F
:104C54002B44C4F82434736DC4F82834B36D2B4446
:104C64000125C4F82C34F36DC4F83034336EC4F821
:104C7400343496F86D20C4F82004204602F1090368
:104C840084F8452405FA03F35A1EC4F83C34C4F8E6
:104C940038242A46FFF786FD4023284684F8443406
:104CA400F8BD00BFFC06002010B50446D0F834144B
:104CB400FFF72EFE94F845340933DBB2984010BD5B
:104CC40070B590F9023082B00446002B0DDBA56864
:104CD40005F1280002F0A0F800283BD163780020F9
:104CE40043F00103637002B070BD80680122A169C2
:104CF400283002F0BDF80028F0D0A58805F00F0593
:104D04006B0100EB4515C35CE52BE7D023781B074B
:104D140001D5E369EB61236A15491A0C6B830E68AC
:104D2400AA8266B10DF103020DF1060101A8B04794
:104D3400BDF80430BDF806202B836B82EA82A37889
:104D4400A56803F07F0305F12800A37002F064F85E
:104D54000028C3D005F50E7002F05EF80028BDD01F
:104D6400286803681B6A98470028B7D0BBE700BFD0
:104D7400CC3C0020024638B552F8105F04468068E7
:104D8400294601F037FE50B155B123690135AB42D4
:104D9400A37818BF03F0BF0363F07F03A37038BD8B
:104DA400A37843F04003F7E7F8B5047814F020043F
:104DB40004D11A4B054642699A4202D30027384669
:104DC400F8BDFFF7D7FF07460028F7D0A8682E697B
:104DD4008279023E416996400E440179A9B1214687
:104DE40006E00AF0BDFCA868E1B202798A420BD958
:104DF400314405222830013402F03AF84FF40072AD
:104E040000210028EDD1D9E782794FF40073696954
:104E14003846934011FA83F36B61F8BD00FE1F001E
:104E240010B5044680680A462830A16902F020F8CB
:104E340020B1A38803F00F0300EB431010BD00BFA3
:104E440010B5037804462BB1FFF73AFF0023237013
:104E5400A37010BD002301202370A37010BD00BFF8
:104E640038B5037805460C4613B1FFF729FFF0B1B6
:104E7400A8680022A969283001F0FAFFB8B1AA880D
:104E840002F00F0200EB421352015D6880589968EA
:104E9400DA6820606560A160E26018695D699969FB
:104EA400DA69206101206561A161E26138BD0020F9
:104EB40038BD00BF30B589B00D4614466946FFF7CA
:104EC400CFFF28B1BDF81020BDF80E302A80238012
:104ED40009B030BD30B589B00D4614466946FFF7B8
:104EE400BFFF28B1BDF81820BDF816302A802380F2
:104EF40009B030BD0B7813F0700F01D1002070475A
:104F0400F0B540F6022389B00D46044601F0F0F8EE
:104F140038B1012210232046A2702370FFF744FF0A
:104F240010B9002009B0F0BD2269237822626BB168
:104F3400636933B1A378002223F02003C4E9042277
:104F4400A3702046FFF7BCFE0028EAD0A068012227
:104F5400A169283001F08CFF0028E2D0B4F804C025
:104F640010220CF00F0C4FEA4C1300EB4C1C8CF885
:104F74000B20C058A768236A97F806E09E1EDCF849
:104F84000410DCF80820DCF80C3006FA0EF6EE46C5
:104F9400AEE80F00DCF81000DCF81410DCF8182080
:104FA400DCF81C30AEE80F007B6907F12800012211
:104FB400F1184FF02033CDF80130CDF80530ADF8BD
:104FC400093001F055FF84460028AAD02E27EE466A
:104FD4008DF800707646BEE80F00CCF80000CCF8DF
:104FE4000410CCF80820CCF80C308DF80170BEE821
:104FF4000F00CCF81000CCF81410CCF81820CCF822
:105004001C302B6A1A0CADF81A30ADF814200FCEF0
:10501400CCF82000CCF82410CCF82820CCF82C3084
:105024000FCECCF83000CCF83410CCF83820CCF8C3
:105034003C30A46804F1280001F0EEFE00283FF49F
:1050440070AF04F50E7001F0E7FE00283FF469AF7D
:10505400206803681B6A09B0BDE8F040184700BF28
:105064002DE9F041002694B0984603780192ADF8FA
:1050740014600B96002B41D10B780D4613F0700F82
:105084003CD01378044616462F2B3BD0002728E04B
:10509400019E3678002E50D001F02AF8034602AA69
:1050A400294620462BB9B8F1000F27D0FFF722FF7D
:1050B40020B3A6460DF12C0CBEE80F00ACE80F009F
:1050C400BEE80F00ACE80F00DEF80050204623785D
:1050D400CCF800500BB1FFF7F3FD019E0BAD277028
:1050E400A770314601AB02AA204601F04DF90646ED
:1050F40002AA294600232046002EC9D1002014B05C
:10510400BDE8F0810136019633782F2BFAD0AD68D3
:10511400242200210BA80AF023FB0D95EB79102B18
:1051240003D0202B0FD00C2BE8D120238DF82C306A
:1051340001230BAD8DF82E30A8E702AAFFF7DAFEA3
:1051440014B0BDE8F0814023F0E700BF2DE9F04141
:10515400002594B09846037801920295ADF8385032
:10516400002B37D10B780E4613F0700F32D0137822
:10517400044615462F2B31D000271EE0019D2D78C3
:10518400002D40D000F0B4FFA6460DF1080C08B382
:1051940066462578BEE80F00ACE80F00BEE80F00B5
:1051A400ACE80F00DEF800302046CCF800300DB13A
:1051B400FFF786FD019D2770A770294601AB0BAA56
:1051C400204601F0E1F805460BAA314600232046AB
:1051D400002DD3D1002014B0BDE8F0810135019534
:1051E40029782F29FAD0A9B9B568242220460AF0D3
:1051F400B7FAA560EB79102B03D0202B22D00C2B0F
:10520400E8D120221FE043460BAA00F071FF14B03E
:10521400BDE8F081B6682422002102A80AF0A0FAB1
:105224000496F379102B03D0202B03D00C2BD1D16F
:10523400202300E040238DF80830012302AE8DF8CE
:105244000A3099E74022012322701846A370C2E76E
:1052540019B101F58961FFF779BF0846704700BFAE
:10526400CB6870B50D46044693B906780EB118465E
:1052740070BD8D68242231460AF072FAA560EB797C
:10528400102B18D0202B10D00C2B14D0304670BD0E
:10529400242200210AF064FA01201023A070237054
:1052A400D5E90223A260236270BD4022012322704B
:1052B4001846A37070BD2022F8E700BF70B50578CA
:1052C4000DB1002070BD0E460446242229460AF082
:1052D40047FAA660F379102B0BD0202B03D00C2BAC
:1052E40007D0284670BD4022012322701846A370BF
:1052F40070BD2022F8E700BF2DE9F04F2DED028BA1
:10530400837883B00546DF0740F18C8088460178B6
:1053140092460E0700F191808C0608D583685A895D
:105324004369C3EB42139BB29A4528BF9A46BAF12C
:10533400000F00F0AF806A6905F110038806564635
:105344004FF0000908EE103AAF68C2F3080B3DD5E0
:10535400396A01EB5221BBF1000F51D1B6F5007F40
:105364004ED37A6B91424BD0B6F5806FC0F08280F9
:105374002878730A800605D43879A0EB09008342A3
:1053840028BF034691424FEA43240CD8C8188242EE
:1053940009D207F12800CDE9001301F03DFDDDE954
:1053A400001300283ED0F86A026857694246B8479D
:1053B400002837D06A69361BA04422446A6169D048
:1053C4002978C2F3080BAF688806C1D497F8059012
:1053D40009EA5229BBF1000F36D1B9F1000F33D1DC
:1053E400002A33D14A064CBF3A6A2A6A2A61023A31
:1053F400B8797969824049441144BBF1000FADD0BA
:10540400CBF50074002207F12800B44228BF3446CB
:1054140001F02EFD30B100EB0B012246404603F0B3
:10542400F5FFC7E76B784FF0FF3043F002036B7072
:1054340003B0BDEC028BBDE8F08FC36942699B1ACF
:105444009A4528BF9A4672E72A69D0E70B0705D523
:10545400AA78540602D52A690132C7E718EE102A41
:105464003846296901F014FB0028DBDB0CD0AF6857
:105474002A69BCE7F86A424603681B699847002812
:10548400D0D04FF4007495E72B7813F0700FC9D087
:10549400AAEB060A504603B0BDEC028BBDE8F08FC0
:1054A40070B582B0012204460DF10701D0E904561B
:1054B400FFF722FF01280CBF9DF807004FF0FF30D3
:1054C400C4E9045602B070BD436913F4F07F30B5EB
:1054D400044683B0C3F3431509D0012907D120330F
:1054E4004361A068383000EB451003B030BD0122A1
:1054F4000DF107012046FFF7FFFE40B2012803D15A
:1055040063691F336361ECE70020EEE72DE9F041A6
:1055140003789AB0002613F0180F0896119606D057
:10552400174683688A6804460D469A4203D00020D1
:105534001AB0BDE8F081FFF7C3FBA6460DF1440C99
:10554400BEE80F00ACE80F00BEE80F00ACE80F00A7
:10555400DEF800303246A169CCF80030A36803F1CC
:10556400280001F085FC0028E1D0A288EC4694F8DC
:10557400008002F00F0200EB421E5201DEF804101C
:105584008058DEF80C30DEF80820ACE80F00DEF8B6
:105594001410DEF81820DEF81C30DEF81000ACE839
:1055A4000F0018F008033A46294640F09B8008A8EB
:1055B400FFF756FD0028BAD0109EBDF82430002510
:1055C4000E990122A3809DF82330A068E3700B9B01
:1055D4002830A161E3608DF820508DF8225001F04D
:1055E40047FC0028A3D0A38803F00F0300EB43106B
:1055F400DDF80D30C0F80D30DDF81130C0F8113091
:10560400DDF81530C0F81530DDF81930C0F8193060
:10561400BDF81D30A0F81D309DF81F30C3779DF8EC
:105624000B30C372002E3BD0A068B31E2A4681798A
:1056340028308B4050F8141C194401F019FC05461D
:1056440000283FF474AF006A6F46696AAA6AEB6A7D
:105654000FC7286B696BAA6BEB6B0FC73146A06849
:1056640001F038FA00283FF462AFA068236A827917
:105674002830023B50F8141C93400122194401F0D5
:10568400F7FB064600283FF452AF6D460FCD30625B
:105694007162B262F3620FCD30637163B263F3631C
:1056A40000210222082311A819918DF846208DF8B3
:1056B400443000F0D3FE00283FF439AFA46804F16D
:1056C400280001F0A9FB00283FF431AF04F50E7067
:1056D40001F0A2FB00283FF42AAF206803681B6A8C
:1056E400984725E740F601236046FFF72FFD002881
:1056F4007FF463AF1BE700BF0378DA0601D4002010
:105704007047436930B5044683B033B183780022CF
:1057140023F02003C0E90422837000230FE06361B7
:10572400A3686A0138339A5C03EB4513EAB1E52AAE
:1057340004D02E2A02D0DB7A1B0722D5636913F426
:10574400F07FC3F3431503F12003E8D101220DF1E7
:1057540007012046FFF7D0FD40B2012803D1636959
:105764001F336361DCE763785BB9A37808222046C2
:1057740043F002032270A37003B0BDE8304000F090
:105784006DBE002003B030BD2DE9F041037804461E
:105794000769002B39D00D464169A94242D0002D3A
:1057A40037D018072AD5E269AA422ED3D4F808C004
:1057B4006E1EA2789CF8060012F0400F00F109005A
:1057C400C0B226FA00F630D14A1EC24009B1964250
:1057D4002FD25B064CBFDCF82030236A236104F12E
:1057E400100806E02169013EA06801F051F9002883
:1057F4000BDD4246002EF5D1A2780CE09A06D5D5F1
:10580400A3685B89B5EB431FF6D900202761BDE887
:10581400F0818278056122F0200201206561A27086
:10582400BDE8F0810120BDE8F081236A334423619F
:10583400F1E7B61AD3E700BF2DE9F0410E4615464D
:1058440000212422044698469DF8187009F088FF28
:10585400B068336A00F13802A58005F00F0502EB49
:105864004512C4E90203D17A0B0711D401F01701E0
:105874002170D37A13F0180F02D141F0080121707E
:1058840008F00303E770012B38D0022B06D0F3B1E4
:10589400002318462370A370BDE8F0810323217808
:1058A400CD06F5D4CE07F3D408F0080118F4806FC0
:1058B40043EA0103A370416B958AA161518B41EACC
:1058C400054112D019BB63F07F03A37010E018F4F4
:1058D400806FDDD108F0080343F00103A370416B2E
:1058E400938AA161518B41EA03412162D369E36147
:1058F40018F4804F04D10120BDE8F0810223CEE7E3
:10590400E1692046FFF740FF0028F4D1C0E701F029
:10591400E1F80028BCD0A378D5E700BF0378002BBA
:1059240045D12DE9F0470B7884B00C4613F0700F85
:1059340030D04B6913F01F052CD106469046A9467A
:1059440001220DF10F012046C3F3431A5F09FFF74B
:10595400D3FC40B24FEA4A1201281BD16369A16803
:105964001F3301F1380C63611CF802200CEB4A1C54
:1059740082B12E2A12D0A2F1E500B0FA80F04009DB
:1059840060B99CF80B1011F0080E12D00F2907D043
:105994000546D5E7002004B0BDE8F0870025CFE731
:1059A4005106CDD502F01F059CF80D90C8E70020E4
:1059B400704785B10CF10A0101E01CF8012F4FEA90
:1059C400CE13614543EA5E0352FA83F35FFA83FE22
:1059D400F3D1CE45DED14346BAB2214630460095D6
:1059E400FFF72AFFD7E700BF03780BB1FFF768B9C9
:1059F400012070472DE9F0470E46017882B009076F
:105A04009DF828709DF82C909DF830A09DF8348066
:105A140018D5A2F2BC7294B27F2C13D85A1E0193EB
:105A24000B2A0FD87A1E1E2A0CD8BAF13B0F98BF46
:105A3400B9F1170F06D8B8F13B0F03D80546FFF7A5
:105A44003FF918B9002002B0BDE8F087A868012228
:105A5400A969283001F00CFA0028F3D0019B4FEA21
:105A64005802A98847EA4313F70701F00F0142EAF5
:105A74004A1243EA442300EB41109BB242EAC92292
:105A840048BF4382B40792B208D518F001080382D4
:105A9400C28118BF4FF0640880F80D80710701D5EA
:105AA4000383C282AC6804F1280001F0B5F9002830
:105AB400C8D004F50E7001F0AFF90028C2D02068F8
:105AC40003681B6A02B0BDE8F047184783789B0758
:105AD40027D5036A10B5044682B0ABB1016911BB86
:105AE400019301621946A06800F0F4FFB0B1A378F5
:105AF400616963F07F032278E161A37022B12046DB
:105B0400FFF7DEF802B010BD012002B010BD6FF047
:105B140070422169A06800F0CDFF68B9002002B08E
:105B240010BD00207047002301AA8068019300F093
:105B3400AFFF0028F2DBEAD1019B002BD7D0D1E7DD
:105B44002DE9F047837805469C0777D588461907E1
:105B5400914600F1B5806B6913EB09026ED2B9F17D
:105B6400000F40D04F464FF0000AA868C3F3080660
:105B74002969447914EA53243FD1002E3DD10029E8
:105B84006ED0AA78520676D5EA699A4273D9013161
:105B9400296102398279436991401944B7F5007F3C
:105BA40053D3B7F5806F70D303797A0A1B1B9342E2
:105BB40028BF1346426B8A424FEA432407D35E1838
:105BC400B24204D24FF0FF3280F828A04263C06A88
:105BD40042460668B66AB04780B36B693F1BA0446F
:105BE40023446B61C1D1EA699A4276D2AA784846C5
:105BF400EB6162F07F03AB7025E08279023943697F
:105C0400914019442144002EC8D0C6F500740122E5
:105C1400BC4228BF3C46283001F02AF970B1304418
:105C240026442246414603F0F1FBB6F5007FA868FE
:105C3400D3D1283001F0F0F80028CED16B780020C1
:105C440043F001036B70BDE8F087C6F500746A6920
:105C5400EB69BC4228BF3C469A4205D30522DAE7E9
:105C6400296A21B3296194E7AB7813F0200F14BF9C
:105C740005220122CFE705F1100200F009FF0028F8
:105C8400DCDB24D0A868296983E7436B8B4204D109
:105C94004FF0FF3380F828A04363C06A424603688C
:105CA4005B6A98470028C9D04FF4007495E72846EA
:105CB400FFF760F80028C1D02969A868296268E75D
:105CC400C169FFF761FD00287FF445AFB6E72846B8
:105CD400FFF750F80028D5D1B0E7054B1B682BB16E
:105CE400AB78484663F07F03AB70ACE74846AAE75D
:105CF400CC3C00202DE9F04F84468DB01446156845
:105D040098460646894603AF01934FF0000EBCE85F
:105D14000F000FC7BCE80F000FC7DCF80030656048
:105D24003B604346A4F80CE0002B3FD04FF0010A3F
:105D3400A9EB0A0103A889B24901FFF725FD50B375
:105D4400002103A8FFF7C0FB074620B300250DE0A0
:105D540001F0CCF88046584601F08CF98346404661
:105D640001F088F9834516D10D2D18D0EAB23946D1
:105D74003046013500F0FAFBA38983462046002B08
:105D8400E6D1D4E901329342E2D1BBFA8BF0400967
:105D94000DB0BDE8F08F00200DB0BDE8F08F0AF122
:105DA400010A019B5FFA8AFA5345C1D20120EFE749
:105DB4002DE9F04F07468DB016469A460DF10C0CAE
:105DC40002F1150402F1200501914FF000090FCFF3
:105DD400ACE80F000FCFACE80F003B68CCF8003004
:105DE4004FEAC91314F8012F43EA5903A54252FAA2
:105DF40083F35FFA83F9F3D133684FF000087360DB
:105E0400A6F80C80BAF1000F4ED00127019B03A81D
:105E1400D91B89B24901FFF7B7FC002855D00021EE
:105E240003A8FFF751FB00284FD0059A574500F10E
:105E3400010B4FF0010492F828304FF0000543F0B5
:105E4400010382F828304FF00F030CBF47F04002E3
:105E54003A46C3724FF00003027003734FF000031D
:105E640080F80D90438306E0ABF80000013401355F
:105E74000BF1020BE4B2B08918B9D6E901239A42B6
:105E840016D0304601F032F8042DEBB2ECD90A2BCF
:105E940002D8ABF80300E9E70D2CABF80500E5D117
:105EA4000137FFB2BA45B1D201200DB0BDE8F08F81
:105EB400B8F1000F06D008F101084FF6FF705FFA41
:105EC40088F8E1E74FF00108DEE700200DB0BDE8F7
:105ED400F08F00BF02464FF0203152F8163B2DE9F7
:105EE400F043C0F81610864684685160C2F8071063
:105EF4001A782E2A14BF0120002003D113F8012F91
:105F04002E2AFBD0611E99420BD90A4602E0934225
:105F1400114606D01146013A91F800C0BCF12E0F8B
:105F2400F5D19C424FF0000540F2868007260827F1
:105F3400A946A84606E001330A264FF008091027AF
:105F44009C425BD91A782E2A08BF9942F3D0222AA0
:105F54000DD07C2A0BD0A2F15B0CBCF1020F06D948
:105F6400A2F12A0CBCF1050F21D82D2A1FD002F072
:105F7400C002802A5DD04E452FD299422CBF00200A
:105F840001200A2E08BF40F00100002847D09EF8E7
:105F94001630202B40D09EF8143001207E2131226F
:105FA40073448EF815009975DA75BDE8F083A2F193
:105FB4003A0CBCF1050FDAD9A2F1210CBCF15D0F4A
:105FC400D5D84E45D9D3A2F1610CBCF1190F28D80C
:105FD400203A3D43D2B2EDB201E000205F2209F144
:105FE400010CF144013389F816205FFA8CF2062A79
:105FF400914698BF8EF814209C42A3D89EF8163080
:10600400202B09D00028C6D018EA050F18BF022596
:106014008EF81550BDE8F0830020BDE8F0830B46F0
:106024008EE7A2F1410CBCF1190F98BF47EA0808AA
:10603400D5E70133002083E7A846DFE72DE9F84FD1
:106044004FF0620900250F460446DFF8A0B04FF078
:106054007E0A91F8148001F11606B8F1030FDBF8FB
:10606400003028BF4FF003082B449DB208F104030D
:10607400DBB205F00F02581E2D09092A02F137017F
:1060840098BF02F13001FA18C3B291759845F0D166
:1060940007EB08030021204683F816A0FFF774FBE2
:1060A40001212046FFF710FA03460B2230469BB12C
:1060B40093F800C01946BCF1000F13D0DB7A1B071C
:1060C400EED409F0A1FA0028EAD109F1FF3919F058
:1060D400FF09C2D1484603E06078B0FA80F0400975
:1060E400BDE8F88F0120BDE8F88F00BFCC51002037
:1060F4002DE9F04F2DED028B8BB0CDE902038B68B7
:1061040007930B7813F0700F53D0029B1B78002B6E
:106114004FD1136990469A4A0E460C33A2FB0323CF
:10612400C3F3870298F815309807049200F0A7800B
:10613400571CFFB20023304619461C460693FFF74E
:1061440023FB08F11603A346A146A24608EE103A23
:106154000594756900213046FFF7B6F9C5F34F156C
:10616400034620B30278E52A29D042B3BC4238BFA3
:1061740000242E2A2BD090F80BC0BCF10F0F54D062
:106184001CF0080C23D1B9F1000F40F0D5800B228C
:1061940018EE101A09F038FA0028DAD198F81530F8
:1061A40013F0010300F0E48001230593D1E7737831
:1061B40083B100200BB0BDEC028BBDE8F08F002C46
:1061C40008BFAA46BC4201D20134E4B212B14FF076
:1061D4000009BEE7039B9A05EBD503F00303013BDB
:1061E400012BE6D8002C08BFAA46BC4203D348E0E2
:1061F400DCB2A74245D000213046FFF765F9631CA5
:106204000028F5D17378002BD3D1A74239D9079D43
:1062140005E02B7904EB0314E4B2A74231D93046EC
:10622400FEF7C2FD0028F4D1C3E7B9F1000F19D17C
:1062340002F01F0B049959458BD112F0400988D004
:10624400437B89460693BBF1010F82D1691C4B46FF
:106254004246304689B2FFF74DFD002808BF4FF093
:10626400000976E70BF1FF3B5FFA8BFB5A45AED191
:10627400437B069A9342E6D04FF0000969E7012771
:1062840058E7059B2BB141463046FFF7D7FE00285F
:106294008FD0013F42463046FBB20AEB03051F464E
:1062A400ADB22946FFF784FD002882D0690130464B
:1062B400FFF76AFA00283FF47CAF00213046FFF76D
:1062C40003F9044600283FF474AF2022002109F0AA
:1062D40047FAD8F81620D8F81A302260636098F884
:1062E4002030B8F81E20A372228198F8153003F0EC
:1062F40018032373234B1B68002B3BD00DF123029F
:106304000DF1260109A89847BDF824302382BDF871
:106314002630E3819DF823306373079A92F828307E
:1063240043F0010382F82830039B2A463146029841
:106334000097FFF781FA3DE7BBF1010F7FF439AF16
:106344000A3001E013F8012F4FEACC11984241EAD8
:106354005C0152FA81F25FFA82FCF3D1069B634539
:106364007FF427AF4F46039B19053FF522AFDBE7C8
:106374001F46F8E745F62123238223836382CCE773
:106384004FECC44ECC3C00202DE9F0411F460B7865
:1063940082B00C46202B154603D114F8013F202B64
:1063A400FBD02C60237863B32F2B2AD04FF0000846
:1063B400294E211D204601AA00F010FE044670B1AA
:1063C400019BB3F5803F40D27F2B08F1010831D8FF
:1063D4003C2BD9B229D8212905D81F2909D8002056
:1063E40002B0BDE8F0812239C9B226FA01F1CA0728
:1063F400F5D42E2B01D0202B1CD123780BB12F2BBD
:10640400D7D12B69013BFE2BE9D82378202B03D16C
:1064140014F8013F202BFBD02F2BF9D028463C60E9
:1064240002B0BDE8F041FFF755BD5C29D7D005D9CE
:106434007C29D4D0C5F81080AC60DEE73E39012950
:10644400F8D8002002B0BDE8F08108F10208AC6081
:10645400C5F81080D1E700BF01210005F0B5002385
:106464008BB0019383789A0724D5016A054619B144
:10647400806800F02FFBE8B101212846FEF7D0FC2C
:10648400C0B1421E00F10A0C0024E30112F8011FFE
:1064940043EA5403944551FA83F3DCB2F5D1E5267B
:1064A40000230670AF682B7007F12800AB7000F072
:1064B400B3FC10B900200BB0F0BD07F50E7000F06E
:1064C400ABFC0028F6D0386803681B6A984700289C
:1064D400F0D0EB78002BEED0294601A8FEF7C0FEE1
:1064E4000028E7D0EB78002BE4D0012721E001A8B5
:1064F400FEF7EAFF7B1CF9B20028DBD0C27A0F2A30
:10650400D8D102785FFA83FC9FB202F01F038B425A
:10651400D0D1437BA342CDD10670A96891F828302D
:1065240043F0010381F8283053060DD4EB7863451A
:10653400C0D3A98801A8C91B89B24901FFF724F96E
:1065440000210028D3D1B5E7AC6804F1280000F09D
:1065540063FC0028AED004F50E7000F05DFC00284A
:10656400A8D0206803681B6A9847A4E7042A04D8C3
:1065740001EB4202B2F8010070470A2A03D801EB8A
:106584004202908870470C2A03D801EB4201C88864
:1065940070470020704700BFF8B504780E467CB100
:1065A40014F06004174607D0012A09D92F220023CA
:1065B40001200A704B70F8BD2146FEF731FC18B972
:1065C400002318463370F8BD0346A446082111E0A1
:1065D400027B114203D00EF1200E5FFA8EFE651C81
:1065E400BD42EDD20CF1010C06F804E0ECB2BCF1B2
:1065F4000C0F10D0BCF1080F11D013F801EBAEF161
:106604004102192AE4D9BEF1200FE8D10CF1010CA2
:10661400BCF10C0FEED1002320463355F8BD1A7897
:10662400202AF8D010214FF02E0ED8E72DE9F04F94
:1066340000248BB0037889460194002B55D0C3788D
:106644000646002B58D0014601A89046FEF708FEE6
:1066540000284AD0F078002843D008F1FF38CB4610
:106664004FF0010AC844B18801A8A1EB0A0189B21C
:106674004901FFF789F8C0B3002101A8FEF724FF00
:1066840098B3C37A0F2B30D103785FFA8AF103F001
:106694001F038B4229D1471C0025042DEBB23FD8A0
:1066A4003B8874BB03F5205189B2B1F5006F3ED32A
:1066B400A3B118465946424600F03EFC8346A0B1B9
:1066C4000024013502370D2DE7D10AF1010AF178D2
:1066D4005FFA8AF31FFA8AFA9942C4D2ABEB090033
:1066E400D946002389F8003003E00023184689F8CE
:1066F40000300BB0BDE8F08FFFF74EFF0BB0BDE8E4
:10670400F08F03F5105189B2B1F5806FEDD20A4ACA
:10671400C3F3090302EA8420184300F58030C9E773
:106724000A2B94BFB7F80330B7F80530B9E7B1F5D1
:10673400806FDAD21C46C4E700FC0F00FFF776BF77
:106744002DE9F843DDE90887C3B181460C461546B7
:106754005E1802E0C047B44210D0D9F80030214698
:106764002A4648461B69984703463A462046294626
:106774000134002BEED11846BDE8F88301231846F6
:10678400BDE8F88310B41468B4F5807FA44628BF2C
:106794004FF4807C01EB4C00814207D231F8023B7C
:1067A40013B95368013353608842F7D8A4EB0C043F
:1067B40014605DF8044B704710B41468802CA44630
:1067C40028BF4FF0800C01EB8C00814207D251F8B6
:1067D400043B13B95368013353608842F7D8A4EBE0
:1067E4000C0414605DF8044B704700BF2DE9F843B6
:1067F400C37904460D461746202B59D0102B30D0B0
:106804000C2B51D1027AC1F34E01836900F50E7944
:1068140011FA85F1A2F1020248468EB2B2FA82F26E
:10682400C1F34621520901EB03085200414600F02E
:106834001FFB002838D0C6F30806731C865DB3F529
:10684400007F23D018440378EA07E26946EA032369
:106854004CBF1B09C3F30B039A4240D20020BDE88E
:10686400F883027AC1F30721836900F50E70A2F15F
:1068740002021944B2FA82F25209520000F0F8FA04
:1068840090B16D0005F4FF75435B25E0227A08F1B1
:1068940001014846A2F10202B2FA82F25209520000
:1068A40000F0E6FA0028CED14FF0FF30BDE8F883BF
:1068B400027A816900F50E70A2F1020201EBD51192
:1068C400B2FA82F25209520000F0D2FA0028EBD058
:1068D400AD0005F4FE754359E2699A42BED3012026
:1068E4003B60BDE8F88300BF2DE9F843C379054652
:1068F4000C461646202B48D0102B2DD00C2B41D102
:10690400C1F34E01836900F50E7911FA84F11FFA7F
:1069140081F8C1F34621CF18037A4846022B394641
:1069240014BF0122032200F0A3FA58B314F00104A7
:10693400C8F308033FD0C25C02F00F0242EA061219
:10694400C2540133B3F5007F3AD0C6F307120344AF
:1069540001201A70BDE8F883027AC1F30721836924
:1069640000F50E70022A194414BF0122032200F01C
:106974007FFA034630B16400012004F4FF741E530F
:10698400BDE8F8830020BDE8F883037A816900F547
:106994000E70022B01EBD41114BF0122032200F06C
:1069A40067FA03460028EDD0A400012004F4FE7425
:1069B4001E51BDE8F883C6540133B3F5007F15D1E9
:1069C4002B7A791C4846022B14BF0122032200F0C3
:1069D4004FFA03460028D5D0C6F30712002CB7D1CE
:1069E400197821F00F0141EA1212B1E7C6F3071238
:1069F4000344F5E72DE9F041C46882B005460E462C
:106A04008C42904640D301270134EB6901AA284601
:106A1400A34205D29FBBEC6801273C44A3422ED37A
:106A2400A64218BF012C214629D9FFF7DFFE002812
:106A340025DBE9D0019B002BE6D107B1EC60EB69C3
:106A4400A3421CD36FF0704221462846FFF74CFF47
:106A54000746A0B13EB96B6A002B01DB013B6B62B8
:106A6400C8F800400CE0012E09D0EB699E4206D81C
:106A7400314622462846FFF737FF0028EBD100278E
:106A8400384602B0BDE8F0810C460027BCE700BFE1
:106A940001290CD910B4C4698C4203D35DF8044BAA
:106AA400FFF7A4BE4FF0FF305DF8044B70474FF082
:106AB400FF30704701290BD910B4C4698C4203D349
:106AC4005DF8044BFFF710BF00205DF8044B7047DE
:106AD4000020704770B5054682B00C461DE0EB6996
:106AE4009C421FD8FFF782FE064621460022002E54
:106AF400284617DBEB699C4214D8FFF7F5FE621EAB
:106B040080B16B6A002B03F10103A8BF6B62EB68D1
:106B1400A342019C88BFEA602EB1012C214601AA40
:106B24002846DCD8002002B070BD00BF2DE9F04734
:106B34000646406A84B000281BDAF2790C2A1BD17D
:106B4400F7697B1C022B40F2CD80022400252146EC
:106B540002AA3046FFF74AFE002804F1010306DBCF
:106B640057D1A7421C465CD0F2699342EFD94FF04B
:106B7400FF3004B0BDE8F087F169002096F83832A0
:106B840001313469DB07CDE9021000F18580002171
:106B94004FF0FF33202A06F5127786F83812C6F82C
:106BA400443242D0D6F800804F4BD8F80020D6F8B3
:106BB40018A095699D4278D1002C00F082800AEBE0
:106BC4000409136951463A46404698470028CED0F6
:106BD4000299B1F5807F8E4628BF4FF4807E07EB83
:106BE4004E0CBC450BD9039D3B46002233F8024BA7
:106BF4000CB9013502469C45F8D802B103950AF157
:106C0400010AA1EB0E01D14502915AD0D8F8002017
:106C1400D7E7029A002AA4D1A74205F101051C4630
:106C2400A2D1284604B0BDE8F087D6F800A02E4BC8
:106C3400DAF80020D6F8189095699D4246D1002CC8
